:020000040000FA
:020000000B28CB
:10000800DE00030E8312A1000A08A20079280C283A
:100018008301A728831205123430A400F130A3000D
:10002800A30B1428A40B1428192883120516851667
:1000380005100514A501A6018312851205120630C4
:10004800A4003030A300A30B2728A40B2728000006
:100058008312051685160630A4003030A300A30BC2
:100068003328A40B3328000001308312A507031896
:10007800A60A0030A6072608803ADF0080305F0213
:10008800031D482863302502031C2028831205100D
:10009800A701A8018312851205120630A40030308A
:1000A800A300A30B5528A40B55280000831205169E
:1000B80085160630A4003030A300A30B6128A40BDA
:1000C8006128000001308312A7070318A80A00302E
:1000D800A8072808803ADF0080305F02031D7628D1
:1000E80031302702031808004E280B1C9F28051DD5
:1000F8007F28013080280030A000851C8528013029
:10010800862800302006031D942805108512051244
:100118008D288E28831205168516922893289E28E6
:100128000514851205129828992883120516851634
:100138009D289E280B10831222088A00210E830016
:10014800DE0E5E0E09000630831685000730831226
:10015800990083169F0183129F013430AA00F13061
:10016800A900A90BB528AA0BB528BA280E208B1709
:080178008B1583161615BF2834
:02400E00D431AB
:00000001FF
